{
  "_format": "hh-sol-artifact-1",
  "contractName": "CuyCollectionNft",
  "sourceName": "contracts/CuyCollectionNft.sol",
  "abi": [
    {
      "inputs": [
        {
          "internalType": "string",
          "name": "_name",
          "type": "string"
        },
        {
          "internalType": "string",
          "name": "_symbol",
          "type": "string"
        }
      ],
      "stateMutability": "nonpayable",
      "type": "constructor"
    },
    {
      "inputs": [],
      "name": "AccessControlBadConfirmation",
      "type": "error"
    },
    {
      "inputs": [
        {
          "internalType": "address",
          "name": "account",
          "type": "address"
        },
        {
          "internalType": "bytes32",
          "name": "neededRole",
          "type": "bytes32"
        }
      ],
      "name": "AccessControlUnauthorizedAccount",
      "type": "error"
    },
    {
      "inputs": [
        {
          "internalType": "address",
          "name": "sender",
          "type": "address"
        },
        {
          "internalType": "uint256",
          "name": "tokenId",
          "type": "uint256"
        },
        {
          "internalType": "address",
          "name": "owner",
          "type": "address"
        }
      ],
      "name": "ERC721IncorrectOwner",
      "type": "error"
    },
    {
      "inputs": [
        {
          "internalType": "address",
          "name": "operator",
          "type": "address"
        },
        {
          "internalType": "uint256",
          "name": "tokenId",
          "type": "uint256"
        }
      ],
      "name": "ERC721InsufficientApproval",
      "type": "error"
    },
    {
      "inputs": [
        {
          "internalType": "address",
          "name": "approver",
          "type": "address"
        }
      ],
      "name": "ERC721InvalidApprover",
      "type": "error"
    },
    {
      "inputs": [
        {
          "internalType": "address",
          "name": "operator",
          "type": "address"
        }
      ],
      "name": "ERC721InvalidOperator",
      "type": "error"
    },
    {
      "inputs": [
        {
          "internalType": "address",
          "name": "owner",
          "type": "address"
        }
      ],
      "name": "ERC721InvalidOwner",
      "type": "error"
    },
    {
      "inputs": [
        {
          "internalType": "address",
          "name": "receiver",
          "type": "address"
        }
      ],
      "name": "ERC721InvalidReceiver",
      "type": "error"
    },
    {
      "inputs": [
        {
          "internalType": "address",
          "name": "sender",
          "type": "address"
        }
      ],
      "name": "ERC721InvalidSender",
      "type": "error"
    },
    {
      "inputs": [
        {
          "internalType": "uint256",
          "name": "tokenId",
          "type": "uint256"
        }
      ],
      "name": "ERC721NonexistentToken",
      "type": "error"
    },
    {
      "inputs": [],
      "name": "EnforcedPause",
      "type": "error"
    },
    {
      "inputs": [],
      "name": "ExpectedPause",
      "type": "error"
    },
    {
      "anonymous": false,
      "inputs": [
        {
          "indexed": true,
          "internalType": "address",
          "name": "owner",
          "type": "address"
        },
        {
          "indexed": true,
          "internalType": "address",
          "name": "approved",
          "type": "address"
        },
        {
          "indexed": true,
          "internalType": "uint256",
          "name": "tokenId",
          "type": "uint256"
        }
      ],
      "name": "Approval",
      "type": "event"
    },
    {
      "anonymous": false,
      "inputs": [
        {
          "indexed": true,
          "internalType": "address",
          "name": "owner",
          "type": "address"
        },
        {
          "indexed": true,
          "internalType": "address",
          "name": "operator",
          "type": "address"
        },
        {
          "indexed": false,
          "internalType": "bool",
          "name": "approved",
          "type": "bool"
        }
      ],
      "name": "ApprovalForAll",
      "type": "event"
    },
    {
      "anonymous": false,
      "inputs": [
        {
          "indexed": false,
          "internalType": "address",
          "name": "account",
          "type": "address"
        },
        {
          "indexed": false,
          "internalType": "uint256",
          "name": "id",
          "type": "uint256"
        }
      ],
      "name": "Burn",
      "type": "event"
    },
    {
      "anonymous": false,
      "inputs": [
        {
          "indexed": false,
          "internalType": "address",
          "name": "account",
          "type": "address"
        }
      ],
      "name": "Paused",
      "type": "event"
    },
    {
      "anonymous": false,
      "inputs": [
        {
          "indexed": true,
          "internalType": "bytes32",
          "name": "role",
          "type": "bytes32"
        },
        {
          "indexed": true,
          "internalType": "bytes32",
          "name": "previousAdminRole",
          "type": "bytes32"
        },
        {
          "indexed": true,
          "internalType": "bytes32",
          "name": "newAdminRole",
          "type": "bytes32"
        }
      ],
      "name": "RoleAdminChanged",
      "type": "event"
    },
    {
      "anonymous": false,
      "inputs": [
        {
          "indexed": true,
          "internalType": "bytes32",
          "name": "role",
          "type": "bytes32"
        },
        {
          "indexed": true,
          "internalType": "address",
          "name": "account",
          "type": "address"
        },
        {
          "indexed": true,
          "internalType": "address",
          "name": "sender",
          "type": "address"
        }
      ],
      "name": "RoleGranted",
      "type": "event"
    },
    {
      "anonymous": false,
      "inputs": [
        {
          "indexed": true,
          "internalType": "bytes32",
          "name": "role",
          "type": "bytes32"
        },
        {
          "indexed": true,
          "internalType": "address",
          "name": "account",
          "type": "address"
        },
        {
          "indexed": true,
          "internalType": "address",
          "name": "sender",
          "type": "address"
        }
      ],
      "name": "RoleRevoked",
      "type": "event"
    },
    {
      "anonymous": false,
      "inputs": [
        {
          "indexed": true,
          "internalType": "address",
          "name": "from",
          "type": "address"
        },
        {
          "indexed": true,
          "internalType": "address",
          "name": "to",
          "type": "address"
        },
        {
          "indexed": true,
          "internalType": "uint256",
          "name": "tokenId",
          "type": "uint256"
        }
      ],
      "name": "Transfer",
      "type": "event"
    },
    {
      "anonymous": false,
      "inputs": [
        {
          "indexed": false,
          "internalType": "address",
          "name": "account",
          "type": "address"
        }
      ],
      "name": "Unpaused",
      "type": "event"
    },
    {
      "inputs": [],
      "name": "DEFAULT_ADMIN_ROLE",
      "outputs": [
        {
          "internalType": "bytes32",
          "name": "",
          "type": "bytes32"
        }
      ],
      "stateMutability": "view",
      "type": "function"
    },
    {
      "inputs": [],
      "name": "MINTER_ROLE",
      "outputs": [
        {
          "internalType": "bytes32",
          "name": "",
          "type": "bytes32"
        }
      ],
      "stateMutability": "view",
      "type": "function"
    },
    {
      "inputs": [],
      "name": "PAUSER_ROLE",
      "outputs": [
        {
          "internalType": "bytes32",
          "name": "",
          "type": "bytes32"
        }
      ],
      "stateMutability": "view",
      "type": "function"
    },
    {
      "inputs": [],
      "name": "UPGRADER_ROLE",
      "outputs": [
        {
          "internalType": "bytes32",
          "name": "",
          "type": "bytes32"
        }
      ],
      "stateMutability": "view",
      "type": "function"
    },
    {
      "inputs": [
        {
          "internalType": "address",
          "name": "to",
          "type": "address"
        },
        {
          "internalType": "uint256",
          "name": "tokenId",
          "type": "uint256"
        }
      ],
      "name": "approve",
      "outputs": [],
      "stateMutability": "nonpayable",
      "type": "function"
    },
    {
      "inputs": [
        {
          "internalType": "address",
          "name": "owner",
          "type": "address"
        }
      ],
      "name": "balanceOf",
      "outputs": [
        {
          "internalType": "uint256",
          "name": "",
          "type": "uint256"
        }
      ],
      "stateMutability": "view",
      "type": "function"
    },
    {
      "inputs": [
        {
          "internalType": "uint256",
          "name": "tokenId",
          "type": "uint256"
        }
      ],
      "name": "burn",
      "outputs": [],
      "stateMutability": "nonpayable",
      "type": "function"
    },
    {
      "inputs": [
        {
          "internalType": "uint256",
          "name": "id",
          "type": "uint256"
        }
      ],
      "name": "buyBack",
      "outputs": [],
      "stateMutability": "nonpayable",
      "type": "function"
    },
    {
      "inputs": [
        {
          "internalType": "uint256",
          "name": "tokenId",
          "type": "uint256"
        }
      ],
      "name": "getApproved",
      "outputs": [
        {
          "internalType": "address",
          "name": "",
          "type": "address"
        }
      ],
      "stateMutability": "view",
      "type": "function"
    },
    {
      "inputs": [
        {
          "internalType": "bytes32",
          "name": "role",
          "type": "bytes32"
        }
      ],
      "name": "getRoleAdmin",
      "outputs": [
        {
          "internalType": "bytes32",
          "name": "",
          "type": "bytes32"
        }
      ],
      "stateMutability": "view",
      "type": "function"
    },
    {
      "inputs": [
        {
          "internalType": "bytes32",
          "name": "role",
          "type": "bytes32"
        },
        {
          "internalType": "address",
          "name": "account",
          "type": "address"
        }
      ],
      "name": "grantRole",
      "outputs": [],
      "stateMutability": "nonpayable",
      "type": "function"
    },
    {
      "inputs": [
        {
          "internalType": "bytes32",
          "name": "role",
          "type": "bytes32"
        },
        {
          "internalType": "address",
          "name": "account",
          "type": "address"
        }
      ],
      "name": "hasRole",
      "outputs": [
        {
          "internalType": "bool",
          "name": "",
          "type": "bool"
        }
      ],
      "stateMutability": "view",
      "type": "function"
    },
    {
      "inputs": [
        {
          "internalType": "address",
          "name": "owner",
          "type": "address"
        },
        {
          "internalType": "address",
          "name": "operator",
          "type": "address"
        }
      ],
      "name": "isApprovedForAll",
      "outputs": [
        {
          "internalType": "bool",
          "name": "",
          "type": "bool"
        }
      ],
      "stateMutability": "view",
      "type": "function"
    },
    {
      "inputs": [],
      "name": "name",
      "outputs": [
        {
          "internalType": "string",
          "name": "",
          "type": "string"
        }
      ],
      "stateMutability": "view",
      "type": "function"
    },
    {
      "inputs": [
        {
          "internalType": "uint256",
          "name": "tokenId",
          "type": "uint256"
        }
      ],
      "name": "ownerOf",
      "outputs": [
        {
          "internalType": "address",
          "name": "",
          "type": "address"
        }
      ],
      "stateMutability": "view",
      "type": "function"
    },
    {
      "inputs": [],
      "name": "pause",
      "outputs": [],
      "stateMutability": "nonpayable",
      "type": "function"
    },
    {
      "inputs": [],
      "name": "paused",
      "outputs": [
        {
          "internalType": "bool",
          "name": "",
          "type": "bool"
        }
      ],
      "stateMutability": "view",
      "type": "function"
    },
    {
      "inputs": [
        {
          "internalType": "bytes32",
          "name": "role",
          "type": "bytes32"
        },
        {
          "internalType": "address",
          "name": "callerConfirmation",
          "type": "address"
        }
      ],
      "name": "renounceRole",
      "outputs": [],
      "stateMutability": "nonpayable",
      "type": "function"
    },
    {
      "inputs": [
        {
          "internalType": "bytes32",
          "name": "role",
          "type": "bytes32"
        },
        {
          "internalType": "address",
          "name": "account",
          "type": "address"
        }
      ],
      "name": "revokeRole",
      "outputs": [],
      "stateMutability": "nonpayable",
      "type": "function"
    },
    {
      "inputs": [],
      "name": "root",
      "outputs": [
        {
          "internalType": "bytes32",
          "name": "",
          "type": "bytes32"
        }
      ],
      "stateMutability": "view",
      "type": "function"
    },
    {
      "inputs": [
        {
          "internalType": "address",
          "name": "to",
          "type": "address"
        },
        {
          "internalType": "uint256",
          "name": "tokenId",
          "type": "uint256"
        }
      ],
      "name": "safeMint",
      "outputs": [],
      "stateMutability": "nonpayable",
      "type": "function"
    },
    {
      "inputs": [
        {
          "internalType": "address",
          "name": "to",
          "type": "address"
        },
        {
          "internalType": "uint256",
          "name": "tokenId",
          "type": "uint256"
        },
        {
          "internalType": "bytes32[]",
          "name": "proofs",
          "type": "bytes32[]"
        }
      ],
      "name": "safeMintWhiteList",
      "outputs": [],
      "stateMutability": "nonpayable",
      "type": "function"
    },
    {
      "inputs": [
        {
          "internalType": "address",
          "name": "from",
          "type": "address"
        },
        {
          "internalType": "address",
          "name": "to",
          "type": "address"
        },
        {
          "internalType": "uint256",
          "name": "tokenId",
          "type": "uint256"
        }
      ],
      "name": "safeTransferFrom",
      "outputs": [],
      "stateMutability": "nonpayable",
      "type": "function"
    },
    {
      "inputs": [
        {
          "internalType": "address",
          "name": "from",
          "type": "address"
        },
        {
          "internalType": "address",
          "name": "to",
          "type": "address"
        },
        {
          "internalType": "uint256",
          "name": "tokenId",
          "type": "uint256"
        },
        {
          "internalType": "bytes",
          "name": "data",
          "type": "bytes"
        }
      ],
      "name": "safeTransferFrom",
      "outputs": [],
      "stateMutability": "nonpayable",
      "type": "function"
    },
    {
      "inputs": [
        {
          "internalType": "address",
          "name": "operator",
          "type": "address"
        },
        {
          "internalType": "bool",
          "name": "approved",
          "type": "bool"
        }
      ],
      "name": "setApprovalForAll",
      "outputs": [],
      "stateMutability": "nonpayable",
      "type": "function"
    },
    {
      "inputs": [
        {
          "internalType": "bytes4",
          "name": "interfaceId",
          "type": "bytes4"
        }
      ],
      "name": "supportsInterface",
      "outputs": [
        {
          "internalType": "bool",
          "name": "",
          "type": "bool"
        }
      ],
      "stateMutability": "view",
      "type": "function"
    },
    {
      "inputs": [],
      "name": "symbol",
      "outputs": [
        {
          "internalType": "string",
          "name": "",
          "type": "string"
        }
      ],
      "stateMutability": "view",
      "type": "function"
    },
    {
      "inputs": [
        {
          "internalType": "uint256",
          "name": "tokenId",
          "type": "uint256"
        }
      ],
      "name": "tokenURI",
      "outputs": [
        {
          "internalType": "string",
          "name": "",
          "type": "string"
        }
      ],
      "stateMutability": "view",
      "type": "function"
    },
    {
      "inputs": [
        {
          "internalType": "address",
          "name": "from",
          "type": "address"
        },
        {
          "internalType": "address",
          "name": "to",
          "type": "address"
        },
        {
          "internalType": "uint256",
          "name": "tokenId",
          "type": "uint256"
        }
      ],
      "name": "transferFrom",
      "outputs": [],
      "stateMutability": "nonpayable",
      "type": "function"
    },
    {
      "inputs": [],
      "name": "unpause",
      "outputs": [],
      "stateMutability": "nonpayable",
      "type": "function"
    }
  ],
  "bytecode": "0x60806040523480156200001157600080fd5b506040516200358e3803806200358e833981810160405281019062000037919062000408565b818181600090816200004a9190620006d8565b5080600190816200005c9190620006d8565b5050506000600660006101000a81548160ff0219169083151502179055506200008f6000801b33620000fe60201b60201c565b50620000c27f65d7a28e3265b37a6474929f336521b332c1681b933f6cb9f3376673440d862a33620000fe60201b60201c565b50620000f57f9f2df0fed2c77648de5860a4cc508cd0818c85b8b8a1ab4ceeef8d981c8956a633620000fe60201b60201c565b505050620007bf565b60006200011283836200020260201b60201c565b620001f75760016007600085815260200190815260200160002060000160008473ffffffffffffffffffffffffffffffffffffffff1673ffffffffffffffffffffffffffffffffffffffff16815260200190815260200160002060006101000a81548160ff021916908315150217905550620001936200026d60201b60201c565b73ffffffffffffffffffffffffffffffffffffffff168273ffffffffffffffffffffffffffffffffffffffff16847f2f8788117e7eff1d82e926ec794901d17c78024a50270940304540a733656f0d60405160405180910390a460019050620001fc565b600090505b92915050565b60006007600084815260200190815260200160002060000160008373ffffffffffffffffffffffffffffffffffffffff1673ffffffffffffffffffffffffffffffffffffffff16815260200190815260200160002060009054906101000a900460ff16905092915050565b600033905090565b6000604051905090565b600080fd5b600080fd5b600080fd5b600080fd5b6000601f19601f8301169050919050565b7f4e487b7100000000000000000000000000000000000000000000000000000000600052604160045260246000fd5b620002de8262000293565b810181811067ffffffffffffffff821117156200030057620002ff620002a4565b5b80604052505050565b60006200031562000275565b9050620003238282620002d3565b919050565b600067ffffffffffffffff821115620003465762000345620002a4565b5b620003518262000293565b9050602081019050919050565b60005b838110156200037e57808201518184015260208101905062000361565b60008484015250505050565b6000620003a16200039b8462000328565b62000309565b905082815260208101848484011115620003c057620003bf6200028e565b5b620003cd8482856200035e565b509392505050565b600082601f830112620003ed57620003ec62000289565b5b8151620003ff8482602086016200038a565b91505092915050565b600080604083850312156200042257620004216200027f565b5b600083015167ffffffffffffffff81111562000443576200044262000284565b5b6200045185828601620003d5565b925050602083015167ffffffffffffffff81111562000475576200047462000284565b5b6200048385828601620003d5565b9150509250929050565b600081519050919050565b7f4e487b7100000000000000000000000000000000000000000000000000000000600052602260045260246000fd5b60006002820490506001821680620004e057607f821691505b602082108103620004f657620004f562000498565b5b50919050565b60008190508160005260206000209050919050565b60006020601f8301049050919050565b600082821b905092915050565b600060088302620005607fffffffffffffffffffffffffffffffffffffffffffffffffffffffffffffffff8262000521565b6200056c868362000521565b95508019841693508086168417925050509392505050565b6000819050919050565b6000819050919050565b6000620005b9620005b3620005ad8462000584565b6200058e565b62000584565b9050919050565b6000819050919050565b620005d58362000598565b620005ed620005e482620005c0565b8484546200052e565b825550505050565b600090565b62000604620005f5565b62000611818484620005ca565b505050565b5b8181101562000639576200062d600082620005fa565b60018101905062000617565b5050565b601f82111562000688576200065281620004fc565b6200065d8462000511565b810160208510156200066d578190505b620006856200067c8562000511565b83018262000616565b50505b505050565b600082821c905092915050565b6000620006ad600019846008026200068d565b1980831691505092915050565b6000620006c883836200069a565b9150826002028217905092915050565b620006e3826200048d565b67ffffffffffffffff811115620006ff57620006fe620002a4565b5b6200070b8254620004c7565b620007188282856200063d565b600060209050601f8311600181146200075057600084156200073b578287015190505b620007478582620006ba565b865550620007b7565b601f1984166200076086620004fc565b60005b828110156200078a5784890151825560018201915060208501945060208101905062000763565b86831015620007aa5784890151620007a6601f8916826200069a565b8355505b6001600288020188555050505b505050505050565b612dbf80620007cf6000396000f3fe608060405234801561001057600080fd5b50600436106101da5760003560e01c806370a0823111610104578063b88d4fde116100a2578063e63ab1e911610071578063e63ab1e914610529578063e985e9c514610547578063ebf0c71714610577578063f72c0d8b14610595576101da565b8063b88d4fde146104a3578063c87b56dd146104bf578063d5391393146104ef578063d547741f1461050d576101da565b806395d89b41116100de57806395d89b411461042f578063a14481941461044d578063a217fddf14610469578063a22cb46514610487576101da565b806370a08231146103c55780638456cb59146103f557806391d14854146103ff576101da565b80632f2ff15d1161017c57806342966c681161014b57806342966c681461033f5780635c975abb1461035b5780636352211e14610379578063662c2d96146103a9576101da565b80632f2ff15d146102e157806336568abe146102fd5780633f4ba83a1461031957806342842e0e14610323576101da565b8063081812fc116101b8578063081812fc14610249578063095ea7b31461027957806323b872dd14610295578063248a9ca3146102b1576101da565b806301ffc9a7146101df578063053f90401461020f57806306fdde031461022b575b600080fd5b6101f960048036038101906101f4919061226d565b6105b3565b60405161020691906122b5565b60405180910390f35b61022960048036038101906102249190612306565b6105c5565b005b610233610680565b60405161024091906123c3565b60405180910390f35b610263600480360381019061025e9190612306565b610712565b6040516102709190612426565b60405180910390f35b610293600480360381019061028e919061246d565b61072e565b005b6102af60048036038101906102aa91906124ad565b610744565b005b6102cb60048036038101906102c69190612536565b610846565b6040516102d89190612572565b60405180910390f35b6102fb60048036038101906102f6919061258d565b610866565b005b6103176004803603810190610312919061258d565b610888565b005b610321610903565b005b61033d600480360381019061033891906124ad565b610938565b005b61035960048036038101906103549190612306565b610958565b005b61036361096f565b60405161037091906122b5565b60405180910390f35b610393600480360381019061038e9190612306565b610986565b6040516103a09190612426565b60405180910390f35b6103c360048036038101906103be9190612632565b610998565b005b6103df60048036038101906103da91906126a6565b610a5a565b6040516103ec91906126e2565b60405180910390f35b6103fd610b14565b005b6104196004803603810190610414919061258d565b610b49565b60405161042691906122b5565b60405180910390f35b610437610bb4565b60405161044491906123c3565b60405180910390f35b6104676004803603810190610462919061246d565b610c46565b005b610471610c75565b60405161047e9190612572565b60405180910390f35b6104a1600480360381019061049c9190612729565b610c7c565b005b6104bd60048036038101906104b89190612899565b610c92565b005b6104d960048036038101906104d49190612306565b610cb7565b6040516104e691906123c3565b60405180910390f35b6104f7610d20565b6040516105049190612572565b60405180910390f35b6105276004803603810190610522919061258d565b610d44565b005b610531610d66565b60405161053e9190612572565b60405180910390f35b610561600480360381019061055c919061291c565b610d8a565b60405161056e91906122b5565b60405180910390f35b61057f610e1e565b60405161058c9190612572565b60405180910390f35b61059d610e24565b6040516105aa9190612572565b60405180910390f35b60006105be82610e48565b9050919050565b3373ffffffffffffffffffffffffffffffffffffffff166105e582610986565b73ffffffffffffffffffffffffffffffffffffffff161461063b576040517f08c379a0000000000000000000000000000000000000000000000000000000008152600401610632906129a8565b60405180910390fd5b61064481610ec2565b7fcc16f5dbb4873280815c1ee09dbd06736cffcc184412cf7a71a0fdb75d397ca533826040516106759291906129c8565b60405180910390a150565b60606000805461068f90612a20565b80601f01602080910402602001604051908101604052809291908181526020018280546106bb90612a20565b80156107085780601f106106dd57610100808354040283529160200191610708565b820191906000526020600020905b8154815290600101906020018083116106eb57829003601f168201915b5050505050905090565b600061071d82610f48565b5061072782610fd0565b9050919050565b610740828261073b61100d565b611015565b5050565b600073ffffffffffffffffffffffffffffffffffffffff168273ffffffffffffffffffffffffffffffffffffffff16036107b65760006040517f64a0ae920000000000000000000000000000000000000000000000000000000081526004016107ad9190612426565b60405180910390fd5b60006107ca83836107c561100d565b611027565b90508373ffffffffffffffffffffffffffffffffffffffff168173ffffffffffffffffffffffffffffffffffffffff1614610840578382826040517f64283d7b00000000000000000000000000000000000000000000000000000000815260040161083793929190612a51565b60405180910390fd5b50505050565b600060076000838152602001908152602001600020600101549050919050565b61086f82610846565b61087881611241565b6108828383611255565b50505050565b61089061100d565b73ffffffffffffffffffffffffffffffffffffffff168173ffffffffffffffffffffffffffffffffffffffff16146108f4576040517f6697b23200000000000000000000000000000000000000000000000000000000815260040160405180910390fd5b6108fe8282611347565b505050565b7f65d7a28e3265b37a6474929f336521b332c1681b933f6cb9f3376673440d862a61092d81611241565b61093561143a565b50565b61095383838360405180602001604052806000815250610c92565b505050565b61096b60008261096661100d565b611027565b5050565b6000600660009054906101000a900460ff16905090565b600061099182610f48565b9050919050565b610a0b828280806020026020016040519081016040528093929190818152602001838360200280828437600081840152601f19601f8201169050808301925050505050505085856040516020016109f0929190612af1565b6040516020818303038152906040528051906020012061149d565b610a4a576040517f08c379a0000000000000000000000000000000000000000000000000000000008152600401610a4190612b69565b60405180910390fd5b610a5484846114b4565b50505050565b60008073ffffffffffffffffffffffffffffffffffffffff168273ffffffffffffffffffffffffffffffffffffffff1603610acd5760006040517f89c62b64000000000000000000000000000000000000000000000000000000008152600401610ac49190612426565b60405180910390fd5b600360008373ffffffffffffffffffffffffffffffffffffffff1673ffffffffffffffffffffffffffffffffffffffff168152602001908152602001600020549050919050565b7f65d7a28e3265b37a6474929f336521b332c1681b933f6cb9f3376673440d862a610b3e81611241565b610b466114d2565b50565b60006007600084815260200190815260200160002060000160008373ffffffffffffffffffffffffffffffffffffffff1673ffffffffffffffffffffffffffffffffffffffff16815260200190815260200160002060009054906101000a900460ff16905092915050565b606060018054610bc390612a20565b80601f0160208091040260200160405190810160405280929190818152602001828054610bef90612a20565b8015610c3c5780601f10610c1157610100808354040283529160200191610c3c565b820191906000526020600020905b815481529060010190602001808311610c1f57829003601f168201915b5050505050905090565b7f9f2df0fed2c77648de5860a4cc508cd0818c85b8b8a1ab4ceeef8d981c8956a6610c7081611241565b505050565b6000801b81565b610c8e610c8761100d565b8383611535565b5050565b610c9d848484610744565b610cb1610ca861100d565b858585856116a4565b50505050565b6060610cc282610f48565b506000610ccd611855565b90506000815111610ced5760405180602001604052806000815250610d18565b80610cf784611875565b604051602001610d08929190612bc5565b6040516020818303038152906040525b915050919050565b7f9f2df0fed2c77648de5860a4cc508cd0818c85b8b8a1ab4ceeef8d981c8956a681565b610d4d82610846565b610d5681611241565b610d608383611347565b50505050565b7f65d7a28e3265b37a6474929f336521b332c1681b933f6cb9f3376673440d862a81565b6000600560008473ffffffffffffffffffffffffffffffffffffffff1673ffffffffffffffffffffffffffffffffffffffff16815260200190815260200160002060008373ffffffffffffffffffffffffffffffffffffffff1673ffffffffffffffffffffffffffffffffffffffff16815260200190815260200160002060009054906101000a900460ff16905092915050565b60085481565b7f189ab7a9244df0848122154315af71fe140f3db0fe014031783b0946b8c9d2e381565b60007f7965db0b000000000000000000000000000000000000000000000000000000007bffffffffffffffffffffffffffffffffffffffffffffffffffffffff1916827bffffffffffffffffffffffffffffffffffffffffffffffffffffffff19161480610ebb5750610eba82611943565b5b9050919050565b6000610ed16000836000611027565b9050600073ffffffffffffffffffffffffffffffffffffffff168173ffffffffffffffffffffffffffffffffffffffff1603610f4457816040517f7e273289000000000000000000000000000000000000000000000000000000008152600401610f3b91906126e2565b60405180910390fd5b5050565b600080610f5483611a25565b9050600073ffffffffffffffffffffffffffffffffffffffff168173ffffffffffffffffffffffffffffffffffffffff1603610fc757826040517f7e273289000000000000000000000000000000000000000000000000000000008152600401610fbe91906126e2565b60405180910390fd5b80915050919050565b60006004600083815260200190815260200160002060009054906101000a900473ffffffffffffffffffffffffffffffffffffffff169050919050565b600033905090565b6110228383836001611a62565b505050565b60008061103384611a25565b9050600073ffffffffffffffffffffffffffffffffffffffff168373ffffffffffffffffffffffffffffffffffffffff161461107557611074818486611c27565b5b600073ffffffffffffffffffffffffffffffffffffffff168173ffffffffffffffffffffffffffffffffffffffff1614611106576110b7600085600080611a62565b6001600360008373ffffffffffffffffffffffffffffffffffffffff1673ffffffffffffffffffffffffffffffffffffffff168152602001908152602001600020600082825403925050819055505b600073ffffffffffffffffffffffffffffffffffffffff168573ffffffffffffffffffffffffffffffffffffffff1614611189576001600360008773ffffffffffffffffffffffffffffffffffffffff1673ffffffffffffffffffffffffffffffffffffffff168152602001908152602001600020600082825401925050819055505b846002600086815260200190815260200160002060006101000a81548173ffffffffffffffffffffffffffffffffffffffff021916908373ffffffffffffffffffffffffffffffffffffffff160217905550838573ffffffffffffffffffffffffffffffffffffffff168273ffffffffffffffffffffffffffffffffffffffff167fddf252ad1be2c89b69c2b068fc378daa952ba7f163c4a11628f55a4df523b3ef60405160405180910390a4809150509392505050565b6112528161124d61100d565b611ceb565b50565b60006112618383610b49565b61133c5760016007600085815260200190815260200160002060000160008473ffffffffffffffffffffffffffffffffffffffff1673ffffffffffffffffffffffffffffffffffffffff16815260200190815260200160002060006101000a81548160ff0219169083151502179055506112d961100d565b73ffffffffffffffffffffffffffffffffffffffff168273ffffffffffffffffffffffffffffffffffffffff16847f2f8788117e7eff1d82e926ec794901d17c78024a50270940304540a733656f0d60405160405180910390a460019050611341565b600090505b92915050565b60006113538383610b49565b1561142f5760006007600085815260200190815260200160002060000160008473ffffffffffffffffffffffffffffffffffffffff1673ffffffffffffffffffffffffffffffffffffffff16815260200190815260200160002060006101000a81548160ff0219169083151502179055506113cc61100d565b73ffffffffffffffffffffffffffffffffffffffff168273ffffffffffffffffffffffffffffffffffffffff16847ff6391f5c32d9c69d2a47ea670b442974b53935d1edc7fd64eb21e047a839171b60405160405180910390a460019050611434565b600090505b92915050565b611442611d3c565b6000600660006101000a81548160ff0219169083151502179055507f5db9ee0a495bf2e6ff9c91a7834c1ba4fdd244a5e8aa4e537bd38aeae4b073aa61148661100d565b6040516114939190612426565b60405180910390a1565b60006114ac8360085484611d7c565b905092915050565b6114ce828260405180602001604052806000815250611d93565b5050565b6114da611db7565b6001600660006101000a81548160ff0219169083151502179055507f62e78cea01bee320cd4e420270b5ea74000d11b0c9f74754ebdbfc544b05a25861151e61100d565b60405161152b9190612426565b60405180910390a1565b600073ffffffffffffffffffffffffffffffffffffffff168273ffffffffffffffffffffffffffffffffffffffff16036115a657816040517f5b08ba1800000000000000000000000000000000000000000000000000000000815260040161159d9190612426565b60405180910390fd5b80600560008573ffffffffffffffffffffffffffffffffffffffff1673ffffffffffffffffffffffffffffffffffffffff16815260200190815260200160002060008473ffffffffffffffffffffffffffffffffffffffff1673ffffffffffffffffffffffffffffffffffffffff16815260200190815260200160002060006101000a81548160ff0219169083151502179055508173ffffffffffffffffffffffffffffffffffffffff168373ffffffffffffffffffffffffffffffffffffffff167f17307eab39ab6107e8899845ad3d59bd9653f200f220920489ca2b5937696c318360405161169791906122b5565b60405180910390a3505050565b60008373ffffffffffffffffffffffffffffffffffffffff163b111561184e578273ffffffffffffffffffffffffffffffffffffffff1663150b7a02868685856040518563ffffffff1660e01b81526004016117039493929190612c3e565b6020604051808303816000875af192505050801561173f57506040513d601f19601f8201168201806040525081019061173c9190612c9f565b60015b6117c3573d806000811461176f576040519150601f19603f3d011682016040523d82523d6000602084013e611774565b606091505b5060008151036117bb57836040517f64a0ae920000000000000000000000000000000000000000000000000000000081526004016117b29190612426565b60405180910390fd5b805181602001fd5b63150b7a0260e01b7bffffffffffffffffffffffffffffffffffffffffffffffffffffffff1916817bffffffffffffffffffffffffffffffffffffffffffffffffffffffff19161461184c57836040517f64a0ae920000000000000000000000000000000000000000000000000000000081526004016118439190612426565b60405180910390fd5b505b5050505050565b6060604051806060016040528060368152602001612d5460369139905090565b60606000600161188484611df8565b01905060008167ffffffffffffffff8111156118a3576118a261276e565b5b6040519080825280601f01601f1916602001820160405280156118d55781602001600182028036833780820191505090505b509050600082602001820190505b600115611938578080600190039150507f3031323334353637383961626364656600000000000000000000000000000000600a86061a8153600a858161192c5761192b612ccc565b5b049450600085036118e3575b819350505050919050565b60007f80ac58cd000000000000000000000000000000000000000000000000000000007bffffffffffffffffffffffffffffffffffffffffffffffffffffffff1916827bffffffffffffffffffffffffffffffffffffffffffffffffffffffff19161480611a0e57507f5b5e139f000000000000000000000000000000000000000000000000000000007bffffffffffffffffffffffffffffffffffffffffffffffffffffffff1916827bffffffffffffffffffffffffffffffffffffffffffffffffffffffff1916145b80611a1e5750611a1d82611f4b565b5b9050919050565b60006002600083815260200190815260200160002060009054906101000a900473ffffffffffffffffffffffffffffffffffffffff169050919050565b8080611a9b5750600073ffffffffffffffffffffffffffffffffffffffff168273ffffffffffffffffffffffffffffffffffffffff1614155b15611bcf576000611aab84610f48565b9050600073ffffffffffffffffffffffffffffffffffffffff168373ffffffffffffffffffffffffffffffffffffffff1614158015611b1657508273ffffffffffffffffffffffffffffffffffffffff168173ffffffffffffffffffffffffffffffffffffffff1614155b8015611b295750611b278184610d8a565b155b15611b6b57826040517fa9fbf51f000000000000000000000000000000000000000000000000000000008152600401611b629190612426565b60405180910390fd5b8115611bcd57838573ffffffffffffffffffffffffffffffffffffffff168273ffffffffffffffffffffffffffffffffffffffff167f8c5be1e5ebec7d5bd14f71427d1e84f3dd0314c0f7b2291e5b200ac8c7c3b92560405160405180910390a45b505b836004600085815260200190815260200160002060006101000a81548173ffffffffffffffffffffffffffffffffffffffff021916908373ffffffffffffffffffffffffffffffffffffffff16021790555050505050565b611c32838383611fb5565b611ce657600073ffffffffffffffffffffffffffffffffffffffff168373ffffffffffffffffffffffffffffffffffffffff1603611ca757806040517f7e273289000000000000000000000000000000000000000000000000000000008152600401611c9e91906126e2565b60405180910390fd5b81816040517f177e802f000000000000000000000000000000000000000000000000000000008152600401611cdd9291906129c8565b60405180910390fd5b505050565b611cf58282610b49565b611d385780826040517fe2517d3f000000000000000000000000000000000000000000000000000000008152600401611d2f929190612cfb565b60405180910390fd5b5050565b611d4461096f565b611d7a576040517f8dfc202b00000000000000000000000000000000000000000000000000000000815260040160405180910390fd5b565b600082611d898584612076565b1490509392505050565b611d9d83836120c6565b611db2611da861100d565b60008585856116a4565b505050565b611dbf61096f565b15611df6576040517fd93c066500000000000000000000000000000000000000000000000000000000815260040160405180910390fd5b565b600080600090507a184f03e93ff9f4daa797ed6e38ed64bf6a1f0100000000000000008310611e56577a184f03e93ff9f4daa797ed6e38ed64bf6a1f0100000000000000008381611e4c57611e4b612ccc565b5b0492506040810190505b6d04ee2d6d415b85acef81000000008310611e93576d04ee2d6d415b85acef81000000008381611e8957611e88612ccc565b5b0492506020810190505b662386f26fc100008310611ec257662386f26fc100008381611eb857611eb7612ccc565b5b0492506010810190505b6305f5e1008310611eeb576305f5e1008381611ee157611ee0612ccc565b5b0492506008810190505b6127108310611f10576127108381611f0657611f05612ccc565b5b0492506004810190505b60648310611f335760648381611f2957611f28612ccc565b5b0492506002810190505b600a8310611f42576001810190505b80915050919050565b60007f01ffc9a7000000000000000000000000000000000000000000000000000000007bffffffffffffffffffffffffffffffffffffffffffffffffffffffff1916827bffffffffffffffffffffffffffffffffffffffffffffffffffffffff1916149050919050565b60008073ffffffffffffffffffffffffffffffffffffffff168373ffffffffffffffffffffffffffffffffffffffff161415801561206d57508273ffffffffffffffffffffffffffffffffffffffff168473ffffffffffffffffffffffffffffffffffffffff16148061202e575061202d8484610d8a565b5b8061206c57508273ffffffffffffffffffffffffffffffffffffffff1661205483610fd0565b73ffffffffffffffffffffffffffffffffffffffff16145b5b90509392505050565b60008082905060005b84518110156120bb576120ac8286838151811061209f5761209e612d24565b5b60200260200101516121bf565b9150808060010191505061207f565b508091505092915050565b600073ffffffffffffffffffffffffffffffffffffffff168273ffffffffffffffffffffffffffffffffffffffff16036121385760006040517f64a0ae9200000000000000000000000000000000000000000000000000000000815260040161212f9190612426565b60405180910390fd5b600061214683836000611027565b9050600073ffffffffffffffffffffffffffffffffffffffff168173ffffffffffffffffffffffffffffffffffffffff16146121ba5760006040517f73c6ac6e0000000000000000000000000000000000000000000000000000000081526004016121b19190612426565b60405180910390fd5b505050565b60008183106121d7576121d282846121ea565b6121e2565b6121e183836121ea565b5b905092915050565b600082600052816020526040600020905092915050565b6000604051905090565b600080fd5b600080fd5b60007fffffffff0000000000000000000000000000000000000000000000000000000082169050919050565b61224a81612215565b811461225557600080fd5b50565b60008135905061226781612241565b92915050565b6000602082840312156122835761228261220b565b5b600061229184828501612258565b91505092915050565b60008115159050919050565b6122af8161229a565b82525050565b60006020820190506122ca60008301846122a6565b92915050565b6000819050919050565b6122e3816122d0565b81146122ee57600080fd5b50565b600081359050612300816122da565b92915050565b60006020828403121561231c5761231b61220b565b5b600061232a848285016122f1565b91505092915050565b600081519050919050565b600082825260208201905092915050565b60005b8381101561236d578082015181840152602081019050612352565b60008484015250505050565b6000601f19601f8301169050919050565b600061239582612333565b61239f818561233e565b93506123af81856020860161234f565b6123b881612379565b840191505092915050565b600060208201905081810360008301526123dd818461238a565b905092915050565b600073ffffffffffffffffffffffffffffffffffffffff82169050919050565b6000612410826123e5565b9050919050565b61242081612405565b82525050565b600060208201905061243b6000830184612417565b92915050565b61244a81612405565b811461245557600080fd5b50565b60008135905061246781612441565b92915050565b600080604083850312156124845761248361220b565b5b600061249285828601612458565b92505060206124a3858286016122f1565b9150509250929050565b6000806000606084860312156124c6576124c561220b565b5b60006124d486828701612458565b93505060206124e586828701612458565b92505060406124f6868287016122f1565b9150509250925092565b6000819050919050565b61251381612500565b811461251e57600080fd5b50565b6000813590506125308161250a565b92915050565b60006020828403121561254c5761254b61220b565b5b600061255a84828501612521565b91505092915050565b61256c81612500565b82525050565b60006020820190506125876000830184612563565b92915050565b600080604083850312156125a4576125a361220b565b5b60006125b285828601612521565b92505060206125c385828601612458565b9150509250929050565b600080fd5b600080fd5b600080fd5b60008083601f8401126125f2576125f16125cd565b5b8235905067ffffffffffffffff81111561260f5761260e6125d2565b5b60208301915083602082028301111561262b5761262a6125d7565b5b9250929050565b6000806000806060858703121561264c5761264b61220b565b5b600061265a87828801612458565b945050602061266b878288016122f1565b935050604085013567ffffffffffffffff81111561268c5761268b612210565b5b612698878288016125dc565b925092505092959194509250565b6000602082840312156126bc576126bb61220b565b5b60006126ca84828501612458565b91505092915050565b6126dc816122d0565b82525050565b60006020820190506126f760008301846126d3565b92915050565b6127068161229a565b811461271157600080fd5b50565b600081359050612723816126fd565b92915050565b600080604083850312156127405761273f61220b565b5b600061274e85828601612458565b925050602061275f85828601612714565b9150509250929050565b600080fd5b7f4e487b7100000000000000000000000000000000000000000000000000000000600052604160045260246000fd5b6127a682612379565b810181811067ffffffffffffffff821117156127c5576127c461276e565b5b80604052505050565b60006127d8612201565b90506127e4828261279d565b919050565b600067ffffffffffffffff8211156128045761280361276e565b5b61280d82612379565b9050602081019050919050565b82818337600083830152505050565b600061283c612837846127e9565b6127ce565b90508281526020810184848401111561285857612857612769565b5b61286384828561281a565b509392505050565b600082601f8301126128805761287f6125cd565b5b8135612890848260208601612829565b91505092915050565b600080600080608085870312156128b3576128b261220b565b5b60006128c187828801612458565b94505060206128d287828801612458565b93505060406128e3878288016122f1565b925050606085013567ffffffffffffffff81111561290457612903612210565b5b6129108782880161286b565b91505092959194509250565b600080604083850312156129335761293261220b565b5b600061294185828601612458565b925050602061295285828601612458565b9150509250929050565b7f4e6f7420746865206f776e657200000000000000000000000000000000000000600082015250565b6000612992600d8361233e565b915061299d8261295c565b602082019050919050565b600060208201905081810360008301526129c181612985565b9050919050565b60006040820190506129dd6000830185612417565b6129ea60208301846126d3565b9392505050565b7f4e487b7100000000000000000000000000000000000000000000000000000000600052602260045260246000fd5b60006002820490506001821680612a3857607f821691505b602082108103612a4b57612a4a6129f1565b5b50919050565b6000606082019050612a666000830186612417565b612a7360208301856126d3565b612a806040830184612417565b949350505050565b60008160601b9050919050565b6000612aa082612a88565b9050919050565b6000612ab282612a95565b9050919050565b612aca612ac582612405565b612aa7565b82525050565b6000819050919050565b612aeb612ae6826122d0565b612ad0565b82525050565b6000612afd8285612ab9565b601482019150612b0d8284612ada565b6020820191508190509392505050565b7f4e6f7420696e2077686974656c69737400000000000000000000000000000000600082015250565b6000612b5360108361233e565b9150612b5e82612b1d565b602082019050919050565b60006020820190508181036000830152612b8281612b46565b9050919050565b600081905092915050565b6000612b9f82612333565b612ba98185612b89565b9350612bb981856020860161234f565b80840191505092915050565b6000612bd18285612b94565b9150612bdd8284612b94565b91508190509392505050565b600081519050919050565b600082825260208201905092915050565b6000612c1082612be9565b612c1a8185612bf4565b9350612c2a81856020860161234f565b612c3381612379565b840191505092915050565b6000608082019050612c536000830187612417565b612c606020830186612417565b612c6d60408301856126d3565b8181036060830152612c7f8184612c05565b905095945050505050565b600081519050612c9981612241565b92915050565b600060208284031215612cb557612cb461220b565b5b6000612cc384828501612c8a565b91505092915050565b7f4e487b7100000000000000000000000000000000000000000000000000000000600052601260045260246000fd5b6000604082019050612d106000830185612417565b612d1d6020830184612563565b9392505050565b7f4e487b7100000000000000000000000000000000000000000000000000000000600052603260045260246000fdfe697066733a2f2f516d526679686167644d6e7257613731476d45626e566a4a73334b33745a416d454462614c6b4e67316f7858464e2fa26469706673582212200d8caee7655a15b5a1c8e04a3d53cfb03f4b872d6bcecbe8e378e61439bf009f64736f6c63430008180033",
  "linkReferences": {},
  "deployedLinkReferences": {}
}